:020000040800F2
:10000000A804002099030008D7260008E724000868
:10001000D52600088F050008E13100080000000027
:10002000000000000000000000000000692B000834
:100030009105000800000000E72900086B2B00086C
:10004000B3030008B3030008B3030008B3030008B8
:10005000B3030008B3030008B3030008B3030008A8
:10006000B3030008B3030008B3030008B303000898
:10007000B3030008B3030008B3030008B303000888
:10008000B3030008B3030008B3030008B303000878
:10009000B3030008B3030008B3030008B303000868
:1000A000B3030008B3030008B3030008B303000858
:1000B000B3030008B3030008B3030008B303000848
:1000C000B3030008B3030008B3030008B303000838
:1000D000B3030008C9310008B3030008D531000894
:1000E000B3030008B303000800000000B3030008D6
:1000F000B3030008B3030008B3030008B303000808
:10010000B3030008B3030008B3030008B3030008F7
:10011000B3030008B3030008B3030008B3030008E7
:10012000B3030008B3030008B3030008B3030008D7
:10013000B3030008B3030008B3030008B3030008C7
:1001400000000000000000000000000000000000AF
:10015000B3030008B3030008B3030008B3030008A7
:10016000B3030008B3030008B3030008B303000897
:10017000B3030008B3030008B30300080000000045
:10018000B3030008B3030008B3030008B303000877
:10019000B3030008B3030008B3030008B303000867
:1001A000B3030008B3030008B30300080000000015
:1001B000B3030008B3030008B3030008B303000847
:1001C000B3030008B30300080000000000000000B3
:1001D0000000000000000000B30300080000000061
:1001E000000000000000000000000000000000000F
:1001F0000000000000000000B3030008B303000883
:10020000B3030008B303000800000000B3030008B4
:10021000B3030008B3030008B3030008B3030008E6
:10022000B303000800000000B30300080000000052
:10023000B3030008B303000800000000B303000884
:10024000B3030008B3030008B3030008B3030008B6
:10025000B3030008B3030008B3030008B3030008A6
:10026000B3030008B3030008B3030008B303000896
:10027000B3030008B3030008B30300080000000044
:10028000B3030008B3030008B3030008B303000876
:1002900000000000B3030008B303000800000000E2
:1002A00000000000B3030008B3030008B303000814
:1002B000B3030008B3030008B3030008B303000846
:1002C000B3030008B3030008B303000800F002F80A
:1002D00000F052F814A696E8000CB244B344DA4594
:1002E00001D100F049F8BAE80F000FA696E83000F7
:1002F000A5EB040504EB0607AAEB0704A7F1010729
:100300004FEA15154FEA3414A4F10104AC4201D3AD
:1003100000F032F813F0010F18BFFB1A43F001038D
:1003200000F001F8DBE71847602F0000902F000075
:10033000103A24BF78C878C1FAD8520724BF30C811
:1003400030C144BF04680C60704700007047000073
:100350000023002400250026103A28BF78C1FBD8CE
:10036000520728BF30C148BF0B6070471FB502F06D
:100370005CFF1FBD10B510BD00F0D0F81146FFF7AF
:10038000F5FF02F02EFF00F0EEF803B4FFF7F2FFE6
:1003900003BC00F0F5F80000094880470948004711
:1003A000FEE7FEE7FEE7FEE7FEE7FEE7FEE7FEE725
:1003B000FEE7FEE704480549054A064B7047000082
:1003C000152C0008CD020008B0020024A80400206B
:1003D000B0040024A800002053EA020C00F0698059
:1003E0002DE9F04B4FF00006002B1FBFB3FA83F549
:1003F00003FA05F424FA05F65E4012BF1643B2FA7A
:1004000082F502FA05F4C5F120051EBF22FA05FCAB
:1004100044EA0C04203556EA044C4FEA144418BF51
:10042000641C4FF000084FF00009904271EB030C80
:1004300039D3002919BFB1FA81F701FA07F6B0FAEA
:1004400080F700FA07F6C7F120071EBF20FA07FC65
:1004500046EA0C062037B6FBF4FCA7EB0507103F75
:1004600007F01F0BCBF120062CFA06F60CFA0BFB5B
:1004700044BFB3460026202FA4BF5E464FF0000BBA
:100480005BEA060C08BF4FF0010B19EB0B0948EBB8
:100490000608ABFB027C06FB02CC0BFB03CCC01BAB
:1004A00071EB0C01C1E70B46024641464846BDE8E8
:1004B000F08B13B5084318BF4FF0FF300146AFF380
:1004C0000080BDE81C4070474FF0000200B51346A5
:1004D00094469646203922BFA0E80C50A0E80C5064
:1004E000B1F12001BFF4F7AF090728BFA0E80C5015
:1004F00048BF0CC05DF804EB890028BF40F8042B0E
:1005000008BF704748BF20F8022B11F0804F18BF7A
:1005100000F8012B7047704770477047754600F030
:100520002BF8AE4605006946534620F00700854685
:1005300018B020B5FFF73EFFBDE820404FF00006A1
:100540004FF000074FF000084FF0000BAC46ACE84E
:10055000C009ACE8C009ACE8C009ACE8C00921F0AA
:1005600007018D46704710B50446AFF30080204662
:10057000BDE81040FFF709BF0048704700000024A5
:1005800001491820ABBEFEE7260002007047FEE7D7
:100590007047EFF3108072B6FEE70000F8B504462E
:1005A00000F01CFB002C00F09080054694F835000C
:1005B000022840F08C802768A44EB74224D0A4487B
:1005C00087421CBFA34887421ED0A34887421CBF56
:1005D000A248874218D0A24887421CBFA148874240
:1005E00012D0A14887421CBFA04887420CD0A04827
:1005F00087421CBF9F48874206D09F4887421CBF46
:100600009E48874240F0E780386820F01E01384657
:1006100040F8141B6FF08001026811400160B7427E
:100620003CD08B4887421CBF8A48874236D08A48D4
:1006300087421CBF8948874230D0F44887421CBF9C
:10064000F34887422AD0F34887421CBFF2488742CA
:1006500024D0F24887421CBFF14887421ED0F1489F
:1006600087421CBFF048874218D0F04887421CBF21
:10067000F048874212D0EE4887421CBFEE488742BE
:100680000CD0EE4887421CBFED48874206D0ED48AB
:1006900087421CBFEC48874240F0C080206E016852
:1006A00021F480710160386820F0010038603868FA
:1006B000C00710D000F092FA401B0628F7D3202084
:1006C0006065032084F8350003E00120F8BD802038
:1006D000606501207CE02068B04223D0C749884291
:1006E0001CBFC74988421DD0C64988421CBFC649A5
:1006F000884217D0C54988421CBFC549884211D0DD
:10070000C44988421CBFC44988420BD0C3498842AF
:100710001CBFC349884205D0C24988421CBFC24998
:10072000884268D1D4E916123F2302F01F0203FA6F
:1007300002F28A60B0423BD0B04988421CBFB04947
:10074000884235D0AF4988421CBFAF4988422FD07C
:10075000AE4988421CBFAE49884229D0AD49884283
:100760001CBFAD49884223D0AC4988421CBFAC496C
:1007700088421DD0AB4988421CBFAB49884217D084
:10078000AA4988421CBFAB49884211D0A849884277
:100790001CBFA94988420BD0A84988421CBFA84960
:1007A000884205D0A74988421CBFA749884242D148
:1007B000E06ED4E919124A6030B1016821F4807109
:1007C0000160D4E91C014160012084F8350000205B
:1007D00002F05EF8F8BD954887423FF415AF9448A3
:1007E00087423FF411AF934887423FF40DAF6FF05B
:1007F0000E01384610E78D49884293D08C498842D3
:1008000090D08C4988423FF48DAFD4E91612012371
:1008100002F01F0203FA02F24A608BE78B4887421C
:100820003FF43CAF8A4887423FF438AF894887425B
:100830003FF434AF37E785498842B9D084498842CC
:10084000B6D084498842B3D0BEE700BF1000024052
:100850002800024040000240580002407000024060
:1008600088000240A0000240B8000240100402408C
:100870002804024040040240580402407004024030
:1008800000285FD090F83510022959D1B0B5016821
:10089000594A914223D0594B99421CBF584B994217
:1008A0001DD0584B99421CBF574B994217D0574BFC
:1008B00099421CBF564B994211D0564B99421CBFCE
:1008C000554B99420BD0554B99421CBF544B994202
:1008D00005D0544B99421CBF534B994235D1042348
:1008E00080F83530914223D0444881421CBF4448AF
:1008F00081421DD0434881421CBF4348814217D0EA
:10090000424881421CBF4248814211D04148814245
:100910001CBF414881420BD0404881421CBF404827
:10092000814205D03F4881421CBF3F4881424FD1A0
:10093000086820F0010008600021BDE8B04002E036
:1009400080214165012108467047384B9942C6D045
:10095000374B9942C3D0374B9942C0D00A6822F036
:100960000E020A600A6822F001020A60324A9142CD
:100970000BD0324A91421CBF314A914205D0314AD4
:1009800091421CBF304A91422BD100F158041ECC39
:100990001D6825F480751D6002F01F02012303FA13
:1009A00002F24A60816E6160C16E31B10A6822F460
:1009B00080720A60D0E91C124A60002180F834106D
:1009C000012280F83520026D002AB6D09047B3E7A7
:1009D00016488142ACD016488142A9D015488142C0
:1009E000A6E71A4A9142D0D0194A9142CDD0194A6D
:1009F0009142CAD0E1E700BF100002402800024047
:100A0000400002405800024070000240880002404E
:100A1000A0000240B8000240100402402804024036
:100A2000400402405804024070040240880402401E
:100A3000B8040240A0040240085402581C54025852
:100A40003054025844540258585402586C540258B6
:100A500094540258805402582DE9FC4F5B4A0A24F2
:100A60004FF0000B4FF0010A9042594A08BF092489
:100A70000244830543EA9222082A38BF14460094B0
:100A8000002700220E6836FA02F500F09D800AFA6F
:100A900002F916EA090E00F092800323D1F804C08F
:100AA00003FA0BF50CF00308EB43A8F10105012D47
:100AB00012D88568D1F80CA00AFA0BF41D404FF04B
:100AC000010A2C438460CCF300144568944025EA65
:100AD00009052C43446005E0B8F1030F02D14FF043
:100AE000030822E0C4688D681C4005FA0BF52C430E
:100AF000C460B8F1020F18D107F01C040F253E4660
:100B000005FA04FC6FF0030505EA520505442F6A57
:100B100027EA0C0C0F6907FA04F4374644EA0C0480
:100B20002C62D1F804C00CF00308056808FA0BF435
:100B30001D402C4304601CF4403F40D07C4BBC461D
:100B4000254E1C6844F002041C601C680F2304F04E
:100B50000204019407F00C04019F22F0030703FA3A
:100B600004F5BB59AB43009D05FA04F42343BB5184
:100B70004FF0B04633684D6843EA0E04EF0258BFA9
:100B800023EA0E043460134EAF02336843EA0E04C6
:100B900058BF23EA0E043460AF03D6F880306746AE
:100BA00043EA0E0458BF23EA0E04C6F88040ED0362
:100BB000F36F43EA0E0458BF23EA0E04F4670BF107
:100BC000020B043701325DE7BDE8FC8F00240258B8
:100BD0000000FEA7040000580804005805480068FB
:100BE000704700BF2848034900780A68104408602D
:100BF000704700BFA400002080B5032000F0D0F8AB
:100C000000F090FE0E49844B0A68C2F303229A5CFE
:100C1000096801F00F0102F01F02595CD0401B4A25
:100C200001F01F011060C840064908600F2000F065
:100C30000BF808B1012080BD00F06CF8002080BDE9
:100C4000184402580C00002070B50F4E044630784E
:100C5000B0B14FF47A71B1FBF0F00C490968B1FB07
:100C6000F0F001F01DF901250F2C0AD848B94FF01A
:100C7000FF3021460022002500F06CF8746000E08F
:100C80000125284670BD00BF00000020080000209C
:100C900010B51249437802780B608B6823F001038A
:100CA0008B6043684B60C47A037B240644EA037379
:100CB000847A43EAC443447B43EA8443847B43EA23
:100CC0004443C47B43EA0443447A007A43EA04235E
:100CD00043EA40001043886010BD00BF98ED00E07B
:100CE0000B48BFF35F8F016821F480310160002160
:100CF00001677047064940F001000867086840F442
:100D000080300860BFF34F8FBFF36F8F704700BF15
:100D100024ED00E081B00648016841F00201016065
:100D2000006800F002000090009801B0704700BF1A
:100D3000F4440258002809D400F01F010122C0F336
:100D40004A1002FA01F1024A42F82010704700BF2F
:100D500000E100E0F0B5184B4FF0FF361C68C4F31B
:100D60000224E51E84F0070438BF002506FA05F7C3
:100D7000BA43042C28BF042406FA04F4A14300F06B
:100D80000F04A940043C1143044A234409010244CE
:100D9000002848BF03F10C021170F0BD00E400E030
:100DA00005494FF6FF030A681A4060F30A22034818
:100DB00010430860704700BF0CED00E00000FA052A
:100DC000B0B50F4D2A682968520705D401F0070114
:100DD000081A18BF0120B0BD21F00701084301F037
:100DE000D3FC044655F8080C800406D4FFF7F6FE41
:100DF00001F097FCF6D90120B0BD0020B0BD00BFC6
:100E00000C48025880B500F057FD0249024A01F033
:100E100002BD00BF2044025850320008B0B51E4940
:100E20008B6A8A6ACC6ACD6BC2F30532D2B1E40612
:100E3000ED0803F0030305EAE47401F0D0FC15D0DB
:100E4000BBB90B689B0651BF9FED161A0B68C3F325
:100E5000C103154C42BF24FA03F301EE103AB8EE79
:100E6000411A08E00021C0E9001112E09FED0C1AC0
:100E700001E09FED0A1A8B6B9FED0C3A01F092FD99
:100E80008A6B01F037FC8A6B01F056FD896B01F02B
:100E900026FD8160B0BD00BF004402580024744AA2
:100EA00020BCBE4B0024744C0090D00300000039DD
:100EB000B0B51E498B6A8A6ACC6A4D6CC2F3055282
:100EC000D2B1E405ED0803F0030305EAE47401F090
:100ED00086FC15D0BBB90B689B0651BF9FED161A57
:100EE0000B68C3F3C103154C42BF24FA03F301EEB0
:100EF000103AB8EE411A08E00021C0E9001112E0F2
:100F00009FED0C1A01E09FED0A1A0B6C9FED0C3A55
:100F100001F048FD0A6C01F0EDFB0A6C01F00CFDDC
:100F2000096C01F0DCFC8160B0BD00BF00440258D8
:100F30000024744A20BCBE4B0024744C0090D003A3
:100F4000000000392DE9F0470446C078A74F00079C
:100F50001CD5606E4FEA3051032908D8DFE801F054
:100F600002090C11F96941F40031F96109E0012627
:100F70000DE001F02AFC01E001F071FC064630B9F9
:100F8000606E396C21F440110843386400266078A3
:100F9000BA46C00701D1354621E0A06D04280BD820
:100FA0003546DFE800F0030C0F121200F8693546F1
:100FB00040F40030F86108E00125012710E001F05D
:100FC00062FC01E001F0F6FB05462F4645B9A06D35
:100FD00001F029FC21F007010843CAF84000374618
:100FE0006078400720D5D4F8A4004FEA7050052857
:100FF00007D8DFE800F003090C0F0F0F01F0BCFB6E
:1010000008E00125012610E001F03DFC01E001F0BF
:10101000D1FB05462E4645B9D4F8A40001F0DAFB11
:1010200021F4600101F0EDFB3E466078000720D519
:10103000D4F8A8004FEA3060052807D8DFE800F0B0
:1010400003090C0F0F0F01F097FB08E001250127A2
:1010500010E001F018FC01E001F0ACFB05462F4662
:1010600045B9D4F8A80001F0B5FB21F0E06101F02A
:10107000C8FB3746E07880071DD5E06C4FEA30109A
:10108000032806D8DFE800F00B02080B01F074FB20
:1010900005E0012501260FE001F097FB05462E46ED
:1010A00055B9E06CDAF83C100025524621F03001C9
:1010B0000843CAF83C003E466078C0061FD5E06D84
:1010C0004FEA3030042807D8DFE800F003090C0F9E
:1010D0000F0001F051FB08E00125012710E001F0AD
:1010E000D2FB01E001F066FB05462F4645B9E06DF5
:1010F00001F099FB21F4E0410843CAF8400037466B
:10110000607880061CD5206E4FEA3040052807D84D
:10111000DFE800F00C03090C0C0C01F05FFC04E0AC
:10112000012501260DE001F04AFC05462E4645B991
:10113000206E01F078FB21F4E0210843CAF840005A
:101140003E46607840061DD5D4F8AC004FEA3070BA
:10115000052807D8DFE800F00C03090C0C0C01F09F
:101160003DFC04E0012501270DE001F028FC0546C7
:101170002F4645B9D4F8AC0001F02CFB21F0E0413A
:1011800001F03FFB37466078000617D5E06E58B196
:10119000B0F1005F05D0B0F1805F23D101F0ECFA2F
:1011A00002E001F01BFC05462E4645B9E06E01F059
:1011B0003AFB21F040510843CAF840003E46E0782F
:1011C000C00702D1B046574623E0A06C574603281B
:1011D0000ED8DFE800F014021114F86940F4003072
:1011E000F8610CE001250126E9E700BF1044025830
:1011F00001254FF001080CE001F0E7FA0546A8468A
:101200003DB9A06CF96B0025B04621F003010843FD
:10121000F863A078400601D4474616E0D7F8F003FB
:1012200040F48070C7F8F003FFF7D8FC0646D7F803
:10123000F003C00507D4FFF7D1FC801B6428F6D962
:101240000325032701E02F467DB12078C00746D053
:10125000A06F4FEAF000052832D8DFE800F037032E
:101260003437373701F0BAFB2FE0DAF86010D4F8E2
:10127000B0005546414011F4407F0BD0296E2A6ED4
:1012800042F480322A6621F440712A6E22F48032C0
:101290002A662966B0F5807F40F0EF81FFF79EFC5B
:1012A000064641F288390327DAF86000800700F12A
:1012B000E181FFF793FC801B03254845F4D9C4E77F
:1012C000012501260CE001F07AFB05462E463DB9CA
:1012D000A06F01F0ADFA21F0380101F0B1FA3E46FD
:1012E0002078800719D5606F052807D8DFE800F05F
:1012F0000C03090C0C0C01F071FB04E00125012723
:101300000CE001F05CFB05462F463DB9606F01F033
:101310008FFA21F0070101F093FA37462078400751
:101320001BD5D4F89000052807D8DFE800F00C039F
:10133000090C0C0C01F052FB04E0012501260DE024
:1013400001F03DFB05462E4645B9D4F8900001F06A
:1013500041FA21F0070101F054FA3E462078800658
:101360001DD5D4F88C004FEA3070052807D8DFE887
:1013700000F00C03090C0C0C01F085FA04E00125C7
:1013800001270DE001F06BFA05462F4645B9D4F868
:101390008C0001F04DFA21F0E04101F051FA37469E
:1013A000207840061DD5D4F898004FEAB0200528D3
:1013B00007D8DFE800F00C03090C0C0C01F063FA0D
:1013C00004E0012501260DE001F049FA05462E460C
:1013D00045B9D4F8980001F0FDF921F4E05101F08D
:1013E00010FA3E46207800061DD5D4F89C004FEA3E
:1013F0007030052807D8DFE800F00C03090C0C0C4E
:1014000001F041FA04E0012501270DE001F027FA7F
:1014100005462F4645B9D4F89C0001F0DBF921F4CC
:10142000604101F0EEF937462068010713D5D4F882
:101430008000B0F5805F06D101F011FA002818BFD6
:101440000127D4F88000DAF84410524621F44051C4
:1014500001F0F6F92068C10613D5D4F89400B0F570
:10146000807F06D101F0FBF9002818BF0127D4F8CE
:101470009400DAF84810524621F4407101F0C1F9A5
:101480002068000318D5D4F8A000B0F5003F09D0BB
:10149000B0F5803F03D010BB01F0F5F901E001F099
:1014A000DEF905462E4645B9D4F8A00001F092F9C0
:1014B00021F4403101F0A5F93E46A07840071ED541
:1014C000D4F88400B0F5401F0FD0B0F5001F09D04C
:1014D000B0F5801F40F0C98001F04EF905E001250C
:1014E0000126EAE701F06BFA05462F4645B9D4F824
:1014F000840001F09DF921F4401101F0A1F9374673
:10150000A078C00701D13E4619E0206DB0F5803FBC
:1015100003D090B901F030F902E001F056F9054628
:101520002E4665B9206DDAF83C100025524621F4AC
:1015300080310843CAF83C00E5E70125012621680F
:10154000880001D4606806E001F089F9002818BF1E
:101550000126D4E900108A0319D5E26F6FF0010368
:1015600003EB3223022B0AD34FEA32233BB1012B88
:101570007ED1DAF81C3043F40033CAF81C303DB990
:10158000DAF8443023F440731A43CAF8442035464D
:10159000CA0207D5226FDAF8403023F000431A431D
:1015A000CAF840208A0207D5A26EDAF8403023F04C
:1015B00080731A43CAF840204A000CD5DAF800209C
:1015C00022F40042CAF80020D4F8B420DAF800303F
:1015D0001A43CAF80020CA0F07D0626DDAF83C300F
:1015E00023F040531A43CAF83C20090208D5D4F826
:1015F0008810DAF8442022F440021143CAF844105B
:10160000C10705D001F03FF9002818BF0546606802
:10161000810705D501F0E2F9002818BF054660688A
:10162000410705D501F0D1F8002818BF05466068CC
:10163000010705D501F0BEF8002818BF054660680F
:10164000C10605D501F0BBF9002818BF0546606842
:10165000800604D501F003F9002818BF0125002DEC
:1016600018BF01252846BDE8F0870125012747E777
:1016700001258DE75546D4F8B0002A68094900F4E1
:10168000407322F47C5201EA1011B3F5407F6FF3EE
:101690001F3008BF0A432A60296E084328660025C8
:1016A000BAE500BFCFFFFF002DE9F843002800F0A6
:1016B000FB807F4D04468846286800F00F00884272
:1016C0000BD2286820F00F0040EA08002860286844
:1016D00000F00F00404540F0E7802068C74F410709
:1016E00009D52169BA6901F0F6F804D9BA6922F07E
:1016F00070021143B961010709D56169FA6901F006
:10170000EAF804D9FA6922F070021143F961C106BE
:101710000AD5A169FA6902F4E062914204D9FA6932
:1017200022F4E0621143F961810609D5E1693A6A60
:1017300001F0D1F804D93A6A22F0700211433962FB
:1017400010F002010AD0E268BB6903F00F039A426D
:1017500004D9BB6923F00F031A43BA61C2073AD018
:10176000D4E90101BA6922F470621143B961012818
:1017700007D0032809D002280BD1396889030CD47B
:1017800092E03968C90508D48EE03968890104D42B
:101790008AE03968490740F187803969A94621F014
:1017A000070108433861FFF719FA064641F2883508
:1017B0006068396901F03801B1EBC00F07D0FFF75D
:1017C0000DFA801BA842F3D90320BDE8F8832068F6
:1017D0004D4600F0020151B1E168BA6902F00F0212
:1017E000914204D2BA6922F00F021143B96129680B
:1017F00001F00F0141450AD9296821F00F0141EAA2
:1018000008012960296801F00F0141454CD14107C9
:1018100009D52169BA6901F05EF804D2BA6922F0EB
:1018200070021143B961010709D56169FA6901F0D4
:1018300052F804D2FA6922F070021143F961C1062C
:101840000AD5A169FA6902F4E062914204D2FA6908
:1018500022F4E0621143F96180060AD5E069396A31
:1018600001F07001884204D2396A21F07001084306
:10187000386200F057F8B969294A1C4BC1F30321BB
:10188000515C01F01F01C840B969186001F00F01F7
:10189000515C01F01F01C840154908600548006807
:1018A000BDE8F843FFF7D0B90120BDE8F88300BFD9
:1018B000002000520400002080B500F033F80A49EF
:1018C000174B0A68C2F303229A5C096801F00F0102
:1018D00002F01F02595CD040044A01F01F01106061
:1018E000C8400349086080BD184402580800002021
:1018F0000C00002080B5FFF7DFFF0849084A09689F
:10190000C1F3021101F013B880B5FFF7D5FF034909
:10191000034A0968C1F3022101F009B81C440258C6
:101920005032000810B535490869C0F3C2000328D9
:101930000FD0022804BF334810BD40B908688006A4
:1019400034485AD50968C1F3C101C84010BD2C48BC
:1019500010BD8A6A886ACC6A4B6BC0F3051000B36D
:1019600004F0010402F00302644204EAD303022AF1
:101970006FF35F3300EE103AB8EE400A13D0AAB905
:101980000A68920651BF9FED221A0A68C2F3C1028B
:10199000204B42BF23FA02F201EE102AB8EE411AA0
:1019A00006E0002010BD9FED191A01E09FED161A08
:1019B0000A6B9FED193A6FF35F2202EE102AB8EE20
:1019C000422A00EE032AB7EE000A32EE000A02EEC7
:1019D000100A086BC0F34620B8EE422A013081EEAF
:1019E000021A21EE000A01EE100AB8EE411A80EE4A
:1019F000010ABCEEC00A10EE100A10BD00440258E5
:101A000000093D0040787D010024744A20BCBE4B93
:101A10000024744C0090D0030000003928B3F8B5BE
:101A200004460078D84EC00721D1207880075ED5C3
:101A3000306910F03801B06A3BD0182901D1800715
:101A400037D03068E168002900F0268120F01900C5
:101A5000084300F04CFE05463068400740D4FFF7CD
:101A6000BDF8401B0228F7D961E1012070473069B9
:101A700000F03801B06A102905D018290AD100F009
:101A80000300022806D130688003CED560680028A4
:101A9000CBD1B6E06068002800F02681B0F5A02F19
:101AA00000F03281B0F5803F00F0328100F0CFFECF
:101AB00031E1E0683168490702D5002800F0A180D3
:101AC000316821F01901084300F011FE0546306825
:101AD000400705D4FFF782F800F04AFEF7D9F8BDB9
:101AE0002069716821F0FE4141EA00607060207851
:101AF000C0061AD5306900F03801B06A082907D04D
:101B0000182940F0938000F00300012840F08E80F7
:101B10003068C00502D5E069802872D1206AF1687A
:101B200021F07C5141EA0060F0602078000755D434
:101B30002078800667D42078400700F18A80676AA1
:101B4000002F49D0306900F03800182840F000819B
:101B5000B16A306B012F54D0A26A01F003039342A3
:101B60004FD1E26AC1F3051191424AD10146226B7D
:101B70006FF35F21013A914243D1626BC0F346217A
:101B8000013A91423DD1A26BC0F30641013A914224
:101B900037D1E16BC0F306600139884231D1A06CC6
:101BA000716BC1F3CC01884216D0F06A20F00100BD
:101BB000F062FFF713F80546FFF710F8A842FBD0D4
:101BC000706B4FF6F8718843A16C40EAC1007063F6
:101BD000F06A40F00100F0620020F8BD706F6169AA
:101BE000002949D040F001007067FEF7F7FF054675
:101BF000706F80079CD4FEF7F1FF401B0228F7D9D5
:101C000095E00120F8BD3068A16900295DD040F45D
:101C1000805000F06CFD0546306880043FF58BAFC6
:101C2000FEF7DCFF401B0228F6D980E03068E1694E
:101C300000297ED040F0800000F059FD0546306854
:101C4000C0053FF56BAFFEF7C9FF00F091FDF6D977
:101C500045E7D6F8000440F48070C6F80004FEF7AB
:101C6000BDFF0546D6F80004C00524D4FEF7B6FF34
:101C7000401B6428F6D95AE020F001007067FEF797
:101C8000ADFF0546706F80077FF552AFFEF7A6FFE8
:101C900000F06EFDF6D922E720F0010000F027FDEC
:101CA0000546306840077FF522AFFEF797FF00F04A
:101CB0005FFDF6D913E7A068002867D0052878D023
:101CC00001287AD000F0D7FD7AE020F4805000F0AF
:101CD0000EFD0546306880047FF52DAFFEF77EFFD0
:101CE00000F046FDF6D9FAE600F0B1FD00F0FFFC89
:101CF0000546306880037FF598AEFEF76FFF411B05
:101D000003206429F5D9EAE6306840F48020306089
:101D1000306840F4803000F0EAFC0546306880030B
:101D20003FF583AEFEF75AFF401B6428F6D9032027
:101D3000F8BD20F0800000F0DAFC05463068C005F0
:101D40007FF5F3AEFEF74AFF00F012FDF6D9C6E6C6
:101D5000306820F0807000F0CAFC0546022F08D1E0
:101D6000306880013DD5FEF739FF00F001FDF7D95D
:101D7000B5E6306880017FF52FAFFEF72FFF00F04A
:101D8000F7FCF6D9ABE600BF0044025800F073FD43
:101D90003067FEF723FF054641F28837306F800732
:101DA0007FF5CDAEFEF71AFF411B0320B942F5D9EE
:101DB00095E6306F40F004003067306F40F001006E
:101DC0003067FEF70BFF054641F28837306F80071A
:101DD0003FF5B5AEFEF702FF411B0320B942F5D92E
:101DE0007DE604F12805B06A40F2F33188432ECD38
:101DF0000843591E40EA0210B0626FF35F214FF4AE
:101E0000FE024FF47E4000EB452080B20844A16BF7
:101E100002EB01414FF0FE4201F4FE010844E16B88
:101E200002EB016101F0FE41084430634FF6F871A6
:101E3000F06A20F00100F062706B8843A16C40EA08
:101E4000C1007063206CF16A21F00C010843F0625C
:101E5000F06A616C20F002000843F062F06A40F41E
:101E60008030F062F06A40F40030F062F06A40F4D2
:101E70008020F062F06A40F00100F062306840F0CB
:101E8000807000F034FC0446306880013FF5A4AE59
:101E9000FEF7A4FE011B03200229F5D91FE600006E
:101EA000411E0020B0EB116F01D001207047044AA1
:101EB000F023516003490B70906007211160704757
:101EC00010E000E023ED00E090F88410012901D13A
:101ED000022112E02421C0F8881001680A680B680A
:101EE00022F0005223F001030B600A6000214166DA
:101EF00080F884102022C0F8882008467047704778
:101F00007047B0B500F0D3FC04BF0220B0BD00F0B4
:101F100016FC22F0606200F01EFD00F042BCB0B57D
:101F200000F0C5FC04BF0220B0BD00F008FC22F0A8
:101F3000604200F010FD00F034BC704770477047FD
:101F4000F8B5016840F60F050446CA6908688B6851
:101F50002A424FEA826567D0C24E00EA0607C24EA7
:101F60001E40BF1968D0D70709D0C70507D501277C
:101F70000F62D4F8907047F00107C4F8907097078B
:101F800009D5DF0707D002270F62D4F8907047F019
:101F90000407C4F89070570709D5DF0707D0042756
:101FA0000F62D4F8907047F00207C4F890701707DA
:101FB0000BD500F020073E4307D008260E62D4F868
:101FC000906046F00806C4F8906012050AD54201F8
:101FD00008D54FF400620A62D4F8902042F0200243
:101FE000C4F89020D4F89020002A00F03081002D11
:101FF0000AD503F0805200F02000801804D0626FF0
:1020000012B1204690472168D4F89000896800F00A
:10201000280001F0400140184FD12046FFF78FFF04
:102020000020C4F89000F8BD002D05D503F08055C0
:1020300000F02006AD195AD1E56E012D03D1D50669
:1020400001D5C5065BD4D50201D55D022DD411069C
:1020500005D503F4000100F08003C91845D15106ED
:1020600001D5410610D4110202D5410000F185804E
:10207000D10140F1EC80B0F1FF3F00F3E880204651
:10208000BDE8F840FFF73CBF00F03CFC20F040000A
:1020900000F034FCF8D10020A0672020C4F88800AC
:1020A0002046BDE8F84000F01DBA4FF480100862E9
:1020B0002046BDE8F840FFF741BF204600F0C4FECF
:1020C00020688068400653D500F061FBFCD100F029
:1020D000CBFB4DD065490165FEF7D2FB002800F02F
:1020E000B680D4F88000016D06E0A16F00E0616F5A
:1020F000002900F0AC802046BDE8F84008471020D9
:102100000862886840063DD4B4F85E00B4F85C10FC
:10211000B4F85E20002A00F09A80814200F0978097
:10212000081A216851E8001F226821F4907142E8E2
:102130000013002BF5D15E49226852E8022F236874
:102140000A4043E80225002DF6D12021C4F88C1066
:1021500000216167E166216851E8001F226821F0D3
:10216000100142E80013002BF5D10221216768E03D
:102170002046BDE8F840FFF7E2BE2046BDE8F84043
:10218000FFF7DBBED4F88000394A0168914223D0C2
:10219000384A91421CBF384A91421DD0374A914279
:1021A0001CBF374A914217D0364A91421CBF364A6B
:1021B000914211D0354A91421CBF354A91420BD011
:1021C000344A91421CBF344A914205D0334A91426D
:1021D0001CBF334A91423BD149688AB2BAB3B4F8C2
:1021E0005C309A4233D2A4F85E10C069B0F5807FAB
:1021F00020D0206850E8000F216820F4807000F0A3
:102200007DFBF6D1206850E8020F216820F0010024
:1022100000F0C4FBF6D100F0BAFAFCD12020C4F8DB
:102220008C000020E06600F080FAFCD1D4F8800039
:10223000FEF7B4F902202067B4F85C00B4F85E1031
:10224000401A81B22046BDE8F840FFF758BEF8BDFD
:10225000144A9142C0D0144A9142BDD0134A9142CF
:10226000BAE700BF2001000401000010392E000869
:102270001000024028000240400002405800024086
:102280007000024088000240A0000240B8000240F6
:102290001004024028040240400402405804024056
:1022A0007004024088040240B8040240A0040240C6
:1022B000FEFFFFEF10B568B10446D0F8880008B9FA
:1022C00000F07DFA00F0E8FA01D000F020FB00F009
:1022D00021FB08B1012010BD00F0F3FA21F02A0122
:1022E000816000F092FABDE8104000F057BD000098
:1022F000F0B5B5B0044630A81421FEF7E5F802A801
:10230000B821FEF7E1F82068DD49884235D0C84998
:1023100088425AD0EE49884200F08080B149884214
:1023200000F0A4809C49884240F0D78000F0FAFA7F
:1023300002A8FEF707FE08B1FEF72BF983480169F2
:1023400041F040010161016901F0400101910199F1
:10235000016841F040010160006800F04000019018
:10236000CDE932440B20349002203190032030908C
:1023700001985B4800F5A05076E000240225039404
:10238000029502A8FEF7DEFD08B1FEF702F96F48DC
:10239000816841F480218160816801F4802100F02E
:1023A000DCF9CDE931540720CDE933404FF44060EA
:1023B0003090019830A94A48FEF74EFB27200021B3
:1023C0000022FEF7C7FC272025E000F0ABFA02A8A8
:1023D000FEF7B8FD08B1FEF7DCF85C48016941F092
:1023E00010010161016901F0100100F0B6F9CDE9B9
:1023F000324404203490022031904FF44040309019
:10240000019830A93648FEF727FB2520002100223D
:10241000FEF7A0FC2520FEF78DFC5EE000F082FABE
:1024200002A8FEF78FFD08B1FEF7B3F8474801692F
:1024300041F020010161016901F020010191019940
:10244000016841F004010160006800F0040001909F
:10245000CDE932440720349002203190C0203090E2
:1024600001981F4800F5806030A934E00120002663
:102470000396029002A8FEF765FD08B1FEF789F801
:1024800032480227016941F080010161016901F0D0
:10249000800101910199016841F01001016000681B
:1024A00000F010000190CDE9326604203490CDE9AF
:1024B0003007019830AD0A48294600F540642046AF
:1024C000FEF7CAFA0B20CDE933602946CDE9317613
:1024D000082030902046FEF7BFFA35B0F0BD00BFAF
:1024E000000402587047FEE781B01848016841F0C7
:1024F00010010160016801F010010091009901686C
:1025000041F080010160016801F0800100910099B3
:10251000016841F040010160016801F04001009153
:102520000099016841F002010160016801F00201B7
:1025300000910099016841F004010160006800F019
:1025400004000090009801B0704700BFE0440258BA
:1025500010B5104C00F004FA0F4B00F0BDF800F07D
:1025600073F908B1FEF715F80A4800F081F908B1CF
:10257000FEF70FF8074800F0ABF908B1FEF709F8CD
:102580000448FFF7A1FC18B1BDE81040FEF701B800
:1025900010BD00BF1C0200240018014010B5104CF3
:1025A00000F0DEF90F4B00F097F800F04DF908B19C
:1025B000FDF7EFFF0A4800F05BF908B1FDF7E9FF0E
:1025C000074800F085F908B1FDF7E3FF0448FFF77D
:1025D0007BFC18B1BDE81040FDF7DBBF10BD00BFAC
:1025E00010000020001C014010B5104C00F0B8F99C
:1025F0000F4B00F071F800F027F908B1FDF7C9FFA3
:102600000A4800F035F908B1FDF7C3FF074800F0AC
:102610005FF908B1FDF7BDFF0448FFF755FC18B19D
:10262000BDE81040FDF7B5BF10BD00BF600000243D
:102630000010014010B5114C00210C204FF416522F
:102640000F4B00F049F800F0FFF808B1FDF7A1FFCB
:102650000A4800F00DF908B1FDF79BFF074800F0AC
:1026600037F908B1FDF795FF0448FFF72DFC18B1C5
:10267000BDE81040FDF78DBF10BD00BFF400002481
:102680000048004010B5114C00210C204FF41652A8
:102690000F4B00F021F800F0D7F808B1FDF779FFF3
:1026A0000A4800F0E5F808B1FDF773FF074800F0AD
:1026B0000FF908B1FDF76DFF0448FFF705FC18B1ED
:1026C000BDE81040FDF765BF10BD00BF88010024C4
:1026D00000140140FEE7FEE7C4E90410C4E902115A
:1026E00004F118001421C4E90032FDF7EDBE30609A
:1026F000FEF774BAC2F34622B8EE433A32EE002A2D
:1027000081EE031A21EE021A02EE102AB8EE422AD6
:1027100032EE002A81EE022ABCEEC22A80ED002AA7
:102720007047001BB0F57A7F7047206850E8000FB3
:10273000216820F0100041E80002002A70472420A0
:10274000C4F8880020680568026822F0010202606F
:10275000012284F884208268704701910199016800
:1027600041F002010160006800F002000190704732
:10277000411B032002297047DAF81C00514640F43F
:102780000030CAF81C0070472860FEF727BA20689E
:1027900050E8020F216820F0400041E80202002AC0
:1027A0007047206820210560002084F88400C4F868
:1027B0008810B0BD04F12800002100F075B9002098
:1027C00084F884002046FFF793BD04F1080002213D
:1027D00000F00AB9DAF84810002552467047022B7B
:1027E0006FF35F3400EE104AB8EE400A704701689C
:1027F00051E8001F026821F4907142E80013002B99
:1028000070470843CAF848007047016841F0010169
:102810000160204670470968C1F30211515C01F064
:102820001F01C84080BDDAF84010002552467047AD
:10283000DAF844100025524670473860FEF7CEB9EA
:102840000843CAF8440070472046FFF733BD30689C
:1028500020F480303060306820F48020704704F12C
:102860002800022100F020B9D4F880000028704729
:102870000021FFF754BB306F20F001003067306F4C
:1028800020F00400704704F10800002100F0ACB80B
:10289000002184F8341070472420C4F88800206890
:1028A000A16A0029026822F0010202607047044612
:1028B00090F884000128704700222B46204600F043
:1028C0003FBC2068416821F49041416081687047B5
:1028D0000021FFF716BB02F0700291427047C1F36E
:1028E000066102EE101AB8EE422A32EE000A81EEBC
:1028F000000ABCEEC00A10EE101A704741E8000250
:10290000002A7047206850E8000F21687047204671
:1029100000F0F0B9204600F0B5BA1968C1F3C10162
:10292000C840704701200024039402907047515C16
:1029300001F01F01C84080BDC2F3064202EE102A1A
:10294000B8EE422A32EE002A81EE022ABCEEC22AFA
:1029500080ED012A704711438160204600F0A6B93E
:1029600000210C204FF4E1327047B8626FF35F2111
:102970004FF47E4000EB42204FF0FE4280B208440C
:102980004FF4FE0101EB034101F4FE010844296903
:1029900002EB016101F0FE410844704741E8020288
:1029A000002A70476FF35F2302EE103AB8EE422A16
:1029B00000EE032A03EE102AB7EE000A704704F176
:1029C0002800012100F070B8016851E8001F02687A
:1029D00021F0100142E80013002B704704F10800B9
:1029E000012100F001B87047F8B5AA4F0546B86A52
:1029F00000F00300032804BF0120F8BD38680C462E
:102A000020F08060FFF719FF06463868000105D501
:102A1000FEF7E4F8801B0228F7D941E095E80F00A3
:102A2000BE6A26F47C36013946EA0030FFF79DFF86
:102A3000B8636869F96A21F0C0010843F862A869BF
:102A4000F96A21F020010843F8624FF6F871F86A3C
:102A500020F01000F862F86B8843E969012C40EA25
:102A6000C100F863F86A40F01000F8624FF40010FB
:102A700008BF4FF48010002C08BF4FF40020F96A03
:102A80000843F862386840F08060FFF7D6FE0446DD
:102A90003868000106D4FEF7A1F8001B0328F7D31D
:102AA0000320F8BD0020F8BDF8B57A4F0546B86A96
:102AB00000F00300032804BF0120F8BD38680C466D
:102AC00020F08050FFF7B9FE06463868800005D533
:102AD000FEF784F8801B0228F7D941E095E80F0043
:102AE000BE6A26F07C76013946EA0050FFF73DFFCA
:102AF00038646869F96A21F440610843F862A8699A
:102B0000F96A21F400710843F8624FF6F871F86A27
:102B100020F48070F862786C8843E969012C40EAFF
:102B2000C1007864F86A40F48070F8624FF08070F9
:102B300008BF4FF40000002C08BF4FF48000F96A72
:102B40000843F862386840F08050FFF776FE04468C
:102B50003868800006D4FEF741F8001B0328F7D33D
:102B60000320F8BD0020F8BD7047FEF73BB8000019
:102B700010B59CB009A81C210830FDF7A5FC01A8E0
:102B80002021FDF7A1FC0220FEF71AF90020009099
:102B90001F48016821F440410160016801F440418F
:102BA0000091009901688904FCD50C201990162227
:102BB00000240121CDE91A4416910220CDE9170025
:102BC000CDE91402CDE912004FF48030CDE90910AF
:102BD00009A8FEF723FF18B1EFF3108072B6FEE7E5
:102BE00040200890CDE905004FF480610791CDE9C0
:102BF00003443F20019003210320029001A8FEF727
:102C000053FD18B1EFF3108072B6FEE71CB010BD93
:102C1000184802581D481E4A016841F470010160BD
:102C2000106800F00F00062804D81068072161F32F
:102C30000300106010B51748174C016841F00101FE
:102C400001600021016103682340036013681B07D2
:102C500004D51368072464F3030313600F4A8161EA
:102C6000C161016282620E4AC2620E4A026341631E
:102C70008263C16302644164026822F480220260BC
:102C80000166094843F2D201016010BD88ED00E001
:102C900000200052004402587FEDF6EA00020202D2
:102CA0000000FF018002010100400052416EA9B105
:102CB000B0B502680D4B0E4D9168C1F342615C5C8A
:102CC000695C9268520F09019B5CAA5CB1FBF4F14C
:102CD0001201B2FBF3F2BDE8B04001E00122012194
:102CE000A0F86810A0F86A20704700BF8032000882
:102CF0007832000810B5816A0A0706D50268836B2E
:102D0000546824F4004423435360CA0706D0026881
:102D1000C36A546824F40034234353608A0706D5F9
:102D20000268036B546824F48034234353604A07D9
:102D300006D50268436B546824F48024234353600F
:102D4000CA0606D50268C36B946824F480542343F2
:102D500093608A0606D50268036C946824F40054D4
:102D6000234393604A060FD50268436C546824F4E9
:102D700080141C435460B3F5801F05D1836C5468E4
:102D800024F4C00423435360090606D50168C06CCF
:102D90004A6822F400221043486010BDBCB50446C6
:102DA0000020C4F89000FDF719FF0546206801686F
:102DB000090713D56FF07E4000904FF40011FFF724
:102DC0007BFD50B1FFF79EFD20F08000FFF796FDE0
:102DD000F8D12020C4F8880020E02068006840076F
:102DE0001ED56FF07E4000904FF48001FFF764FD28
:102DF000B0B1206850E8000F216820F49070FFF710
:102E00007DFDF6D1206850E8020F216820F0010016
:102E1000FFF7C4FDF6D12020C4F88C00032007E0A2
:102E20002020C4F88800C4F88C000020E0662067E9
:102E3000002184F88410BCBD806B0021A0F85E10D6
:102E4000A0F85610FFF77BB810B5FFF7D0FCFCD107
:102E50000B49026852E8022F03680A4043E8022443
:102E6000002CF6D1C16E012902D1FFF7ADFDFCD1D6
:102E70002021C0F88C1000214167C16610BD00BF41
:102E8000FEFFFFEFFEB5044601688068964ED4E968
:102E900003230D68354018436669954B3043934EC4
:102EA0002843E56928430860486820F440501043EF
:102EB0004860A069B1421CBF226A10438A681A4068
:102EC0008C4B10438860626AC86A20F00F00104380
:102ED000C862894881421CBF884881420BD088481B
:102EE00081421CBF8748814205D0874881421CBF70
:102EF0008648814208D1586D00F0070006281FD28D
:102F00008A4F384407781CE0B14212D08048814291
:102F100008D08048814205D07F48814202D07F4856
:102F200081420DD1586DC0F3C200062808D27E4FF1
:102F3000E7E7986D00F00700062801D278A7E0E7E0
:102F400080277B48B1420FD00121B5F5004F1BD13E
:102F5000082F25D8DFE807F0056AB1B16DB1B1B12E
:102F60007100FEF7C7FC6CE0402F2ED0042F2FD04D
:102F7000082F31D0102F37D0202F3BD0022F40F018
:102F80009B80FDF73FFF2BE0082F14D8DFE807F008
:102F900005739595769595957A00FEF7ABFC75E0EF
:102FA000102F00F09280202F4DD0402F40F08580D0
:102FB0004FF4004047E0102F00F08E80202F67D0A4
:102FC000402F7AD14FF4004062E04FF4004011E00E
:102FD0006846FDF723FF02E06846FDF769FF0198A8
:102FE000002867D0626A05E018688006514801D55C
:102FF000FFF793FC504931F812106268B0FBF1F012
:1030000002EB4201884257D3B0EB023F54D8010E85
:10301000000210EB520041F100010023FDF7DCF942
:10302000A0F54071454A914242D345E0FEF76CFC61
:1030300007E06846FDF7F2FE02E06846FDF738FF5C
:103040000198B8B3626A3C4931F81210B0FBF1F054
:1030500061684A0802EB40004FF6EF72B0FBF1F0F6
:10306000A0F11001914227D84FF6F0710140C0F352
:10307000420008441CE0FEF747FC07E06846FDF705
:10308000CDFE02E06846FDF713FF019890B1626A39
:10309000294931F812104FF6EF72B0FBF1F0616878
:1030A00000EB5100B0FBF1F0A0F11001914203D808
:1030B0002168C860002100E001210020C4E91D0052
:1030C0004FF00110A0660846FEBD1868800619483A
:1030D000B9D5FFF722FCB6E7186880061548D7D5A2
:1030E000FFF71BFCD4E700BFF369FFCF000C0058CB
:1030F000FFF4FF1100440258004400400048004023
:10310000004C00400050004000780040007C00402F
:103110000014014000180140001C01400010014053
:1031200002040810204000004A320008443200081F
:1031300000093D000090D0036032000800FD0F0040
:103140002DE9F047DDF820908246984616460F4656
:103150000068032509F10104C1693940C91BB1FAAE
:1031600081F14909B1421ED1002CF5D0FDF736FDA1
:10317000A0EB0800484517D8B9F1000F14D0DAF8D1
:10318000000001684907E7D5402F18BF802FE3D022
:10319000C16909070BD4C1690905DDD503252024C0
:1031A0004FF4006106E000252846BDE8F0870125C0
:1031B0000821082401625046FFF746FE00208AF8E5
:1031C0008400CAF89040EFE70148FEF7B9BE00BF9F
:1031D000600000240148FEF7B3BE00BFF4000024E5
:1031E000FEE784B001200090FDF77AFD40F2011067
:1031F000039048F21F700290002001906846FDF78E
:1032000047FD0420FDF776FDFDF7F6FCFFF7B0FC67
:10321000FFF76AF9FFF79CF9FFF7E6F9FFF70AFAFB
:10322000FFF730FAFFF7BAF9FEE7F1EE100A4FF6B2
:10323000FF71C0F2C03120EA010040F04070E1EEC1
:10324000100A7047000408102040010408102040B4
:10325000000000000102030401020304060708093C
:10326000010002000400060008000A000C00100023
:10327000200040008000000101010103070100005F
:103280000804020408010101B8320008000000200F
:103290001000000030030008C832000810000020B1
:1032A0009804000050030008C83200080000002401
:1032B000B0040000500300080100000010000000EE
:0832C0000090D0030090D00340
:04000005080002CD20
:00000001FF
